{"contracts/Guardify.sol":{"Guardify":{"abi":[{"inputs":[{"internalType":"uint256","name":"","type":"uint256"}],"name":"attackRecords","outputs":[{"internalType":"address","name":"attacker","type":"address"},{"internalType":"uint256","name":"timestamp","type":"uint256"},{"internalType":"string","name":"attackType","type":"string"}],"stateMutability":"view","type":"function"},{"inputs":[],"name":"getAttackRecords","outputs":[{"components":[{"internalType":"address","name":"attacker","type":"address"},{"internalType":"uint256","name":"timestamp","type":"uint256"},{"internalType":"string","name":"attackType","type":"string"}],"internalType":"struct Guardify.AttackRecord[]","name":"","type":"tuple[]"}],"stateMutability":"view","type":"function"},{"inputs":[{"internalType":"string","name":"_attackType","type":"string"}],"name":"recordAttack","outputs":[],"stateMutability":"nonpayable","type":"function"}],"evm":{"bytecode":{"linkReferences":{},"object":"608060405234801561001057600080fd5b50610b76806100206000396000f3fe608060405234801561001057600080fd5b50600436106100415760003560e01c8063070528df146100465780636fec3e8c146100645780637186bf8b14610080575b600080fd5b61004e6100b2565b60405161005b91906105af565b60405180910390f35b61007e6004803603810190610079919061071a565b610203565b005b61009a6004803603810190610095919061078f565b6102d1565b6040516100a993929190610824565b60405180910390f35b60606000805480602002602001604051908101604052809291908181526020016000905b828210156101fa57838290600052602060002090600302016040518060600160405290816000820160009054906101000a900473ffffffffffffffffffffffffffffffffffffffff1673ffffffffffffffffffffffffffffffffffffffff1673ffffffffffffffffffffffffffffffffffffffff1681526020016001820154815260200160028201805461016990610891565b80601f016020809104026020016040519081016040528092919081815260200182805461019590610891565b80156101e25780601f106101b7576101008083540402835291602001916101e2565b820191906000526020600020905b8154815290600101906020018083116101c557829003601f168201915b505050505081525050815260200190600101906100d6565b50505050905090565b600060405180606001604052803373ffffffffffffffffffffffffffffffffffffffff168152602001428152602001838152509050600081908060018154018082558091505060019003906000526020600020906003020160009091909190915060008201518160000160006101000a81548173ffffffffffffffffffffffffffffffffffffffff021916908373ffffffffffffffffffffffffffffffffffffffff1602179055506020820151816001015560408201518160020190816102ca9190610a6e565b5050505050565b600081815481106102e157600080fd5b90600052602060002090600302016000915090508060000160009054906101000a900473ffffffffffffffffffffffffffffffffffffffff169080600101549080600201805461033090610891565b80601f016020809104026020016040519081016040528092919081815260200182805461035c90610891565b80156103a95780601f1061037e576101008083540402835291602001916103a9565b820191906000526020600020905b81548152906001019060200180831161038c57829003601f168201915b5050505050905083565b600081519050919050565b600082825260208201905092915050565b6000819050602082019050919050565b600073ffffffffffffffffffffffffffffffffffffffff82169050919050565b600061040a826103df565b9050919050565b61041a816103ff565b82525050565b6000819050919050565b61043381610420565b82525050565b600081519050919050565b600082825260208201905092915050565b60005b83811015610473578082015181840152602081019050610458565b60008484015250505050565b6000601f19601f8301169050919050565b600061049b82610439565b6104a58185610444565b93506104b5818560208601610455565b6104be8161047f565b840191505092915050565b60006060830160008301516104e16000860182610411565b5060208301516104f4602086018261042a565b506040830151848203604086015261050c8282610490565b9150508091505092915050565b600061052583836104c9565b905092915050565b6000602082019050919050565b6000610545826103b3565b61054f81856103be565b935083602082028501610561856103cf565b8060005b8581101561059d578484038952815161057e8582610519565b94506105898361052d565b925060208a01995050600181019050610565565b50829750879550505050505092915050565b600060208201905081810360008301526105c9818461053a565b905092915050565b6000604051905090565b600080fd5b600080fd5b600080fd5b600080fd5b7f4e487b7100000000000000000000000000000000000000000000000000000000600052604160045260246000fd5b6106278261047f565b810181811067ffffffffffffffff82111715610646576106456105ef565b5b80604052505050565b60006106596105d1565b9050610665828261061e565b919050565b600067ffffffffffffffff821115610685576106846105ef565b5b61068e8261047f565b9050602081019050919050565b82818337600083830152505050565b60006106bd6106b88461066a565b61064f565b9050828152602081018484840111156106d9576106d86105ea565b5b6106e484828561069b565b509392505050565b600082601f830112610701576107006105e5565b5b81356107118482602086016106aa565b91505092915050565b6000602082840312156107305761072f6105db565b5b600082013567ffffffffffffffff81111561074e5761074d6105e0565b5b61075a848285016106ec565b91505092915050565b61076c81610420565b811461077757600080fd5b50565b60008135905061078981610763565b92915050565b6000602082840312156107a5576107a46105db565b5b60006107b38482850161077a565b91505092915050565b6107c5816103ff565b82525050565b6107d481610420565b82525050565b600082825260208201905092915050565b60006107f682610439565b61080081856107da565b9350610810818560208601610455565b6108198161047f565b840191505092915050565b600060608201905061083960008301866107bc565b61084660208301856107cb565b818103604083015261085881846107eb565b9050949350505050565b7f4e487b7100000000000000000000000000000000000000000000000000000000600052602260045260246000fd5b600060028204905060018216806108a957607f821691505b6020821081036108bc576108bb610862565b5b50919050565b60008190508160005260206000209050919050565b60006020601f8301049050919050565b600082821b905092915050565b6000600883026109247fffffffffffffffffffffffffffffffffffffffffffffffffffffffffffffffff826108e7565b61092e86836108e7565b95508019841693508086168417925050509392505050565b6000819050919050565b600061096b61096661096184610420565b610946565b610420565b9050919050565b6000819050919050565b61098583610950565b61099961099182610972565b8484546108f4565b825550505050565b600090565b6109ae6109a1565b6109b981848461097c565b505050565b5b818110156109dd576109d26000826109a6565b6001810190506109bf565b5050565b601f821115610a22576109f3816108c2565b6109fc846108d7565b81016020851015610a0b578190505b610a1f610a17856108d7565b8301826109be565b50505b505050565b600082821c905092915050565b6000610a4560001984600802610a27565b1980831691505092915050565b6000610a5e8383610a34565b9150826002028217905092915050565b610a7782610439565b67ffffffffffffffff811115610a9057610a8f6105ef565b5b610a9a8254610891565b610aa58282856109e1565b600060209050601f831160018114610ad85760008415610ac6578287015190505b610ad08582610a52565b865550610b38565b601f198416610ae6866108c2565b60005b82811015610b0e57848901518255600182019150602085019450602081019050610ae9565b86831015610b2b5784890151610b27601f891682610a34565b8355505b6001600288020188555050505b50505050505056fea26469706673582212201a0845b8ebb6c7b0d0886a3ea67284a9ead116a8872d180da24d66daf53fc2db64736f6c63430008180033","opcodes":"PUSH1 0x80 PUSH1 0x40 MSTORE CALLVALUE DUP1 ISZERO PUSH2 0x10 JUMPI PUSH1 0x0 DUP1 REVERT JUMPDEST POP PUSH2 0xB76 DUP1 PUSH2 0x20 PUSH1 0x0 CODECOPY PUSH1 0x0 RETURN INVALID PUSH1 0x80 PUSH1 0x40 MSTORE CALLVALUE DUP1 ISZERO PUSH2 0x10 JUMPI PUSH1 0x0 DUP1 REVERT JUMPDEST POP PUSH1 0x4 CALLDATASIZE LT PUSH2 0x41 JUMPI PUSH1 0x0 CALLDATALOAD PUSH1 0xE0 SHR DUP1 PUSH4 0x70528DF EQ PUSH2 0x46 JUMPI DUP1 PUSH4 0x6FEC3E8C EQ PUSH2 0x64 JUMPI DUP1 PUSH4 0x7186BF8B EQ PUSH2 0x80 JUMPI JUMPDEST PUSH1 0x0 DUP1 REVERT JUMPDEST PUSH2 0x4E PUSH2 0xB2 JUMP JUMPDEST PUSH1 0x40 MLOAD PUSH2 0x5B SWAP2 SWAP1 PUSH2 0x5AF JUMP JUMPDEST PUSH1 0x40 MLOAD DUP1 SWAP2 SUB SWAP1 RETURN JUMPDEST PUSH2 0x7E PUSH1 0x4 DUP1 CALLDATASIZE SUB DUP2 ADD SWAP1 PUSH2 0x79 SWAP2 SWAP1 PUSH2 0x71A JUMP JUMPDEST PUSH2 0x203 JUMP JUMPDEST STOP JUMPDEST PUSH2 0x9A PUSH1 0x4 DUP1 CALLDATASIZE SUB DUP2 ADD SWAP1 PUSH2 0x95 SWAP2 SWAP1 PUSH2 0x78F JUMP JUMPDEST PUSH2 0x2D1 JUMP JUMPDEST PUSH1 0x40 MLOAD PUSH2 0xA9 SWAP4 SWAP3 SWAP2 SWAP1 PUSH2 0x824 JUMP JUMPDEST PUSH1 0x40 MLOAD DUP1 SWAP2 SUB SWAP1 RETURN JUMPDEST PUSH1 0x60 PUSH1 0x0 DUP1 SLOAD DUP1 PUSH1 0x20 MUL PUSH1 0x20 ADD PUSH1 0x40 MLOAD SWAP1 DUP2 ADD PUSH1 0x40 MSTORE DUP1 SWAP3 SWAP2 SWAP1 DUP2 DUP2 MSTORE PUSH1 0x20 ADD PUSH1 0x0 SWAP1 JUMPDEST DUP3 DUP3 LT ISZERO PUSH2 0x1FA JUMPI DUP4 DUP3 SWAP1 PUSH1 0x0 MSTORE PUSH1 0x20 PUSH1 0x0 KECCAK256 SWAP1 PUSH1 0x3 MUL ADD PUSH1 0x40 MLOAD DUP1 PUSH1 0x60 ADD PUSH1 0x40 MSTORE SWAP1 DUP2 PUSH1 0x0 DUP3 ADD PUSH1 0x0 SWAP1 SLOAD SWAP1 PUSH2 0x100 EXP SWAP1 DIV PUSH20 0xFFFFFFFFFFFFFFFFFFFFFFFFFFFFFFFFFFFFFFFF AND PUSH20 0xFFFFFFFFFFFFFFFFFFFFFFFFFFFFFFFFFFFFFFFF AND PUSH20 0xFFFFFFFFFFFFFFFFFFFFFFFFFFFFFFFFFFFFFFFF AND DUP2 MSTORE PUSH1 0x20 ADD PUSH1 0x1 DUP3 ADD SLOAD DUP2 MSTORE PUSH1 0x20 ADD PUSH1 0x2 DUP3 ADD DUP1 SLOAD PUSH2 0x169 SWAP1 PUSH2 0x891 JUMP JUMPDEST DUP1 PUSH1 0x1F ADD PUSH1 0x20 DUP1 SWAP2 DIV MUL PUSH1 0x20 ADD PUSH1 0x40 MLOAD SWAP1 DUP2 ADD PUSH1 0x40 MSTORE DUP1 SWAP3 SWAP2 SWAP1 DUP2 DUP2 MSTORE PUSH1 0x20 ADD DUP3 DUP1 SLOAD PUSH2 0x195 SWAP1 PUSH2 0x891 JUMP JUMPDEST DUP1 ISZERO PUSH2 0x1E2 JUMPI DUP1 PUSH1 0x1F LT PUSH2 0x1B7 JUMPI PUSH2 0x100 DUP1 DUP4 SLOAD DIV MUL DUP4 MSTORE SWAP2 PUSH1 0x20 ADD SWAP2 PUSH2 0x1E2 JUMP JUMPDEST DUP3 ADD SWAP2 SWAP1 PUSH1 0x0 MSTORE PUSH1 0x20 PUSH1 0x0 KECCAK256 SWAP1 JUMPDEST DUP2 SLOAD DUP2 MSTORE SWAP1 PUSH1 0x1 ADD SWAP1 PUSH1 0x20 ADD DUP1 DUP4 GT PUSH2 0x1C5 JUMPI DUP3 SWAP1 SUB PUSH1 0x1F AND DUP3 ADD SWAP2 JUMPDEST POP POP POP POP POP DUP2 MSTORE POP POP DUP2 MSTORE PUSH1 0x20 ADD SWAP1 PUSH1 0x1 ADD SWAP1 PUSH2 0xD6 JUMP JUMPDEST POP POP POP POP SWAP1 POP SWAP1 JUMP JUMPDEST PUSH1 0x0 PUSH1 0x40 MLOAD DUP1 PUSH1 0x60 ADD PUSH1 0x40 MSTORE DUP1 CALLER PUSH20 0xFFFFFFFFFFFFFFFFFFFFFFFFFFFFFFFFFFFFFFFF AND DUP2 MSTORE PUSH1 0x20 ADD TIMESTAMP DUP2 MSTORE PUSH1 0x20 ADD DUP4 DUP2 MSTORE POP SWAP1 POP PUSH1 0x0 DUP2 SWAP1 DUP1 PUSH1 0x1 DUP2 SLOAD ADD DUP1 DUP3 SSTORE DUP1 SWAP2 POP POP PUSH1 0x1 SWAP1 SUB SWAP1 PUSH1 0x0 MSTORE PUSH1 0x20 PUSH1 0x0 KECCAK256 SWAP1 PUSH1 0x3 MUL ADD PUSH1 0x0 SWAP1 SWAP2 SWAP1 SWAP2 SWAP1 SWAP2 POP PUSH1 0x0 DUP3 ADD MLOAD DUP2 PUSH1 0x0 ADD PUSH1 0x0 PUSH2 0x100 EXP DUP2 SLOAD DUP2 PUSH20 0xFFFFFFFFFFFFFFFFFFFFFFFFFFFFFFFFFFFFFFFF MUL NOT AND SWAP1 DUP4 PUSH20 0xFFFFFFFFFFFFFFFFFFFFFFFFFFFFFFFFFFFFFFFF AND MUL OR SWAP1 SSTORE POP PUSH1 0x20 DUP3 ADD MLOAD DUP2 PUSH1 0x1 ADD SSTORE PUSH1 0x40 DUP3 ADD MLOAD DUP2 PUSH1 0x2 ADD SWAP1 DUP2 PUSH2 0x2CA SWAP2 SWAP1 PUSH2 0xA6E JUMP JUMPDEST POP POP POP POP POP JUMP JUMPDEST PUSH1 0x0 DUP2 DUP2 SLOAD DUP2 LT PUSH2 0x2E1 JUMPI PUSH1 0x0 DUP1 REVERT JUMPDEST SWAP1 PUSH1 0x0 MSTORE PUSH1 0x20 PUSH1 0x0 KECCAK256 SWAP1 PUSH1 0x3 MUL ADD PUSH1 0x0 SWAP2 POP SWAP1 POP DUP1 PUSH1 0x0 ADD PUSH1 0x0 SWAP1 SLOAD SWAP1 PUSH2 0x100 EXP SWAP1 DIV PUSH20 0xFFFFFFFFFFFFFFFFFFFFFFFFFFFFFFFFFFFFFFFF AND SWAP1 DUP1 PUSH1 0x1 ADD SLOAD SWAP1 DUP1 PUSH1 0x2 ADD DUP1 SLOAD PUSH2 0x330 SWAP1 PUSH2 0x891 JUMP JUMPDEST DUP1 PUSH1 0x1F ADD PUSH1 0x20 DUP1 SWAP2 DIV MUL PUSH1 0x20 ADD PUSH1 0x40 MLOAD SWAP1 DUP2 ADD PUSH1 0x40 MSTORE DUP1 SWAP3 SWAP2 SWAP1 DUP2 DUP2 MSTORE PUSH1 0x20 ADD DUP3 DUP1 SLOAD PUSH2 0x35C SWAP1 PUSH2 0x891 JUMP JUMPDEST DUP1 ISZERO PUSH2 0x3A9 JUMPI DUP1 PUSH1 0x1F LT PUSH2 0x37E JUMPI PUSH2 0x100 DUP1 DUP4 SLOAD DIV MUL DUP4 MSTORE SWAP2 PUSH1 0x20 ADD SWAP2 PUSH2 0x3A9 JUMP JUMPDEST DUP3 ADD SWAP2 SWAP1 PUSH1 0x0 MSTORE PUSH1 0x20 PUSH1 0x0 KECCAK256 SWAP1 JUMPDEST DUP2 SLOAD DUP2 MSTORE SWAP1 PUSH1 0x1 ADD SWAP1 PUSH1 0x20 ADD DUP1 DUP4 GT PUSH2 0x38C JUMPI DUP3 SWAP1 SUB PUSH1 0x1F AND DUP3 ADD SWAP2 JUMPDEST POP POP POP POP POP SWAP1 POP DUP4 JUMP JUMPDEST PUSH1 0x0 DUP2 MLOAD SWAP1 POP SWAP2 SWAP1 POP JUMP JUMPDEST PUSH1 0x0 DUP3 DUP3 MSTORE PUSH1 0x20 DUP3 ADD SWAP1 POP SWAP3 SWAP2 POP POP JUMP JUMPDEST PUSH1 0x0 DUP2 SWAP1 POP PUSH1 0x20 DUP3 ADD SWAP1 POP SWAP2 SWAP1 POP JUMP JUMPDEST PUSH1 0x0 PUSH20 0xFFFFFFFFFFFFFFFFFFFFFFFFFFFFFFFFFFFFFFFF DUP3 AND SWAP1 POP SWAP2 SWAP1 POP JUMP JUMPDEST PUSH1 0x0 PUSH2 0x40A DUP3 PUSH2 0x3DF JUMP JUMPDEST SWAP1 POP SWAP2 SWAP1 POP JUMP JUMPDEST PUSH2 0x41A DUP2 PUSH2 0x3FF JUMP JUMPDEST DUP3 MSTORE POP POP JUMP JUMPDEST PUSH1 0x0 DUP2 SWAP1 POP SWAP2 SWAP1 POP JUMP JUMPDEST PUSH2 0x433 DUP2 PUSH2 0x420 JUMP JUMPDEST DUP3 MSTORE POP POP JUMP JUMPDEST PUSH1 0x0 DUP2 MLOAD SWAP1 POP SWAP2 SWAP1 POP JUMP JUMPDEST PUSH1 0x0 DUP3 DUP3 MSTORE PUSH1 0x20 DUP3 ADD SWAP1 POP SWAP3 SWAP2 POP POP JUMP JUMPDEST PUSH1 0x0 JUMPDEST DUP4 DUP2 LT ISZERO PUSH2 0x473 JUMPI DUP1 DUP3 ADD MLOAD DUP2 DUP5 ADD MSTORE PUSH1 0x20 DUP2 ADD SWAP1 POP PUSH2 0x458 JUMP JUMPDEST PUSH1 0x0 DUP5 DUP5 ADD MSTORE POP POP POP POP JUMP JUMPDEST PUSH1 0x0 PUSH1 0x1F NOT PUSH1 0x1F DUP4 ADD AND SWAP1 POP SWAP2 SWAP1 POP JUMP JUMPDEST PUSH1 0x0 PUSH2 0x49B DUP3 PUSH2 0x439 JUMP JUMPDEST PUSH2 0x4A5 DUP2 DUP6 PUSH2 0x444 JUMP JUMPDEST SWAP4 POP PUSH2 0x4B5 DUP2 DUP6 PUSH1 0x20 DUP7 ADD PUSH2 0x455 JUMP JUMPDEST PUSH2 0x4BE DUP2 PUSH2 0x47F JUMP JUMPDEST DUP5 ADD SWAP2 POP POP SWAP3 SWAP2 POP POP JUMP JUMPDEST PUSH1 0x0 PUSH1 0x60 DUP4 ADD PUSH1 0x0 DUP4 ADD MLOAD PUSH2 0x4E1 PUSH1 0x0 DUP7 ADD DUP3 PUSH2 0x411 JUMP JUMPDEST POP PUSH1 0x20 DUP4 ADD MLOAD PUSH2 0x4F4 PUSH1 0x20 DUP7 ADD DUP3 PUSH2 0x42A JUMP JUMPDEST POP PUSH1 0x40 DUP4 ADD MLOAD DUP5 DUP3 SUB PUSH1 0x40 DUP7 ADD MSTORE PUSH2 0x50C DUP3 DUP3 PUSH2 0x490 JUMP JUMPDEST SWAP2 POP POP DUP1 SWAP2 POP POP SWAP3 SWAP2 POP POP JUMP JUMPDEST PUSH1 0x0 PUSH2 0x525 DUP4 DUP4 PUSH2 0x4C9 JUMP JUMPDEST SWAP1 POP SWAP3 SWAP2 POP POP JUMP JUMPDEST PUSH1 0x0 PUSH1 0x20 DUP3 ADD SWAP1 POP SWAP2 SWAP1 POP JUMP JUMPDEST PUSH1 0x0 PUSH2 0x545 DUP3 PUSH2 0x3B3 JUMP JUMPDEST PUSH2 0x54F DUP2 DUP6 PUSH2 0x3BE JUMP JUMPDEST SWAP4 POP DUP4 PUSH1 0x20 DUP3 MUL DUP6 ADD PUSH2 0x561 DUP6 PUSH2 0x3CF JUMP JUMPDEST DUP1 PUSH1 0x0 JUMPDEST DUP6 DUP2 LT ISZERO PUSH2 0x59D JUMPI DUP5 DUP5 SUB DUP10 MSTORE DUP2 MLOAD PUSH2 0x57E DUP6 DUP3 PUSH2 0x519 JUMP JUMPDEST SWAP5 POP PUSH2 0x589 DUP4 PUSH2 0x52D JUMP JUMPDEST SWAP3 POP PUSH1 0x20 DUP11 ADD SWAP10 POP POP PUSH1 0x1 DUP2 ADD SWAP1 POP PUSH2 0x565 JUMP JUMPDEST POP DUP3 SWAP8 POP DUP8 SWAP6 POP POP POP POP POP POP SWAP3 SWAP2 POP POP JUMP JUMPDEST PUSH1 0x0 PUSH1 0x20 DUP3 ADD SWAP1 POP DUP2 DUP2 SUB PUSH1 0x0 DUP4 ADD MSTORE PUSH2 0x5C9 DUP2 DUP5 PUSH2 0x53A JUMP JUMPDEST SWAP1 POP SWAP3 SWAP2 POP POP JUMP JUMPDEST PUSH1 0x0 PUSH1 0x40 MLOAD SWAP1 POP SWAP1 JUMP JUMPDEST PUSH1 0x0 DUP1 REVERT JUMPDEST PUSH1 0x0 DUP1 REVERT JUMPDEST PUSH1 0x0 DUP1 REVERT JUMPDEST PUSH1 0x0 DUP1 REVERT JUMPDEST PUSH32 0x4E487B7100000000000000000000000000000000000000000000000000000000 PUSH1 0x0 MSTORE PUSH1 0x41 PUSH1 0x4 MSTORE PUSH1 0x24 PUSH1 0x0 REVERT JUMPDEST PUSH2 0x627 DUP3 PUSH2 0x47F JUMP JUMPDEST DUP2 ADD DUP2 DUP2 LT PUSH8 0xFFFFFFFFFFFFFFFF DUP3 GT OR ISZERO PUSH2 0x646 JUMPI PUSH2 0x645 PUSH2 0x5EF JUMP JUMPDEST JUMPDEST DUP1 PUSH1 0x40 MSTORE POP POP POP JUMP JUMPDEST PUSH1 0x0 PUSH2 0x659 PUSH2 0x5D1 JUMP JUMPDEST SWAP1 POP PUSH2 0x665 DUP3 DUP3 PUSH2 0x61E JUMP JUMPDEST SWAP2 SWAP1 POP JUMP JUMPDEST PUSH1 0x0 PUSH8 0xFFFFFFFFFFFFFFFF DUP3 GT ISZERO PUSH2 0x685 JUMPI PUSH2 0x684 PUSH2 0x5EF JUMP JUMPDEST JUMPDEST PUSH2 0x68E DUP3 PUSH2 0x47F JUMP JUMPDEST SWAP1 POP PUSH1 0x20 DUP2 ADD SWAP1 POP SWAP2 SWAP1 POP JUMP JUMPDEST DUP3 DUP2 DUP4 CALLDATACOPY PUSH1 0x0 DUP4 DUP4 ADD MSTORE POP POP POP JUMP JUMPDEST PUSH1 0x0 PUSH2 0x6BD PUSH2 0x6B8 DUP5 PUSH2 0x66A JUMP JUMPDEST PUSH2 0x64F JUMP JUMPDEST SWAP1 POP DUP3 DUP2 MSTORE PUSH1 0x20 DUP2 ADD DUP5 DUP5 DUP5 ADD GT ISZERO PUSH2 0x6D9 JUMPI PUSH2 0x6D8 PUSH2 0x5EA JUMP JUMPDEST JUMPDEST PUSH2 0x6E4 DUP5 DUP3 DUP6 PUSH2 0x69B JUMP JUMPDEST POP SWAP4 SWAP3 POP POP POP JUMP JUMPDEST PUSH1 0x0 DUP3 PUSH1 0x1F DUP4 ADD SLT PUSH2 0x701 JUMPI PUSH2 0x700 PUSH2 0x5E5 JUMP JUMPDEST JUMPDEST DUP2 CALLDATALOAD PUSH2 0x711 DUP5 DUP3 PUSH1 0x20 DUP7 ADD PUSH2 0x6AA JUMP JUMPDEST SWAP2 POP POP SWAP3 SWAP2 POP POP JUMP JUMPDEST PUSH1 0x0 PUSH1 0x20 DUP3 DUP5 SUB SLT ISZERO PUSH2 0x730 JUMPI PUSH2 0x72F PUSH2 0x5DB JUMP JUMPDEST JUMPDEST PUSH1 0x0 DUP3 ADD CALLDATALOAD PUSH8 0xFFFFFFFFFFFFFFFF DUP2 GT ISZERO PUSH2 0x74E JUMPI PUSH2 0x74D PUSH2 0x5E0 JUMP JUMPDEST JUMPDEST PUSH2 0x75A DUP5 DUP3 DUP6 ADD PUSH2 0x6EC JUMP JUMPDEST SWAP2 POP POP SWAP3 SWAP2 POP POP JUMP JUMPDEST PUSH2 0x76C DUP2 PUSH2 0x420 JUMP JUMPDEST DUP2 EQ PUSH2 0x777 JUMPI PUSH1 0x0 DUP1 REVERT JUMPDEST POP JUMP JUMPDEST PUSH1 0x0 DUP2 CALLDATALOAD SWAP1 POP PUSH2 0x789 DUP2 PUSH2 0x763 JUMP JUMPDEST SWAP3 SWAP2 POP POP JUMP JUMPDEST PUSH1 0x0 PUSH1 0x20 DUP3 DUP5 SUB SLT ISZERO PUSH2 0x7A5 JUMPI PUSH2 0x7A4 PUSH2 0x5DB JUMP JUMPDEST JUMPDEST PUSH1 0x0 PUSH2 0x7B3 DUP5 DUP3 DUP6 ADD PUSH2 0x77A JUMP JUMPDEST SWAP2 POP POP SWAP3 SWAP2 POP POP JUMP JUMPDEST PUSH2 0x7C5 DUP2 PUSH2 0x3FF JUMP JUMPDEST DUP3 MSTORE POP POP JUMP JUMPDEST PUSH2 0x7D4 DUP2 PUSH2 0x420 JUMP JUMPDEST DUP3 MSTORE POP POP JUMP JUMPDEST PUSH1 0x0 DUP3 DUP3 MSTORE PUSH1 0x20 DUP3 ADD SWAP1 POP SWAP3 SWAP2 POP POP JUMP JUMPDEST PUSH1 0x0 PUSH2 0x7F6 DUP3 PUSH2 0x439 JUMP JUMPDEST PUSH2 0x800 DUP2 DUP6 PUSH2 0x7DA JUMP JUMPDEST SWAP4 POP PUSH2 0x810 DUP2 DUP6 PUSH1 0x20 DUP7 ADD PUSH2 0x455 JUMP JUMPDEST PUSH2 0x819 DUP2 PUSH2 0x47F JUMP JUMPDEST DUP5 ADD SWAP2 POP POP SWAP3 SWAP2 POP POP JUMP JUMPDEST PUSH1 0x0 PUSH1 0x60 DUP3 ADD SWAP1 POP PUSH2 0x839 PUSH1 0x0 DUP4 ADD DUP7 PUSH2 0x7BC JUMP JUMPDEST PUSH2 0x846 PUSH1 0x20 DUP4 ADD DUP6 PUSH2 0x7CB JUMP JUMPDEST DUP2 DUP2 SUB PUSH1 0x40 DUP4 ADD MSTORE PUSH2 0x858 DUP2 DUP5 PUSH2 0x7EB JUMP JUMPDEST SWAP1 POP SWAP5 SWAP4 POP POP POP POP JUMP JUMPDEST PUSH32 0x4E487B7100000000000000000000000000000000000000000000000000000000 PUSH1 0x0 MSTORE PUSH1 0x22 PUSH1 0x4 MSTORE PUSH1 0x24 PUSH1 0x0 REVERT JUMPDEST PUSH1 0x0 PUSH1 0x2 DUP3 DIV SWAP1 POP PUSH1 0x1 DUP3 AND DUP1 PUSH2 0x8A9 JUMPI PUSH1 0x7F DUP3 AND SWAP2 POP JUMPDEST PUSH1 0x20 DUP3 LT DUP2 SUB PUSH2 0x8BC JUMPI PUSH2 0x8BB PUSH2 0x862 JUMP JUMPDEST JUMPDEST POP SWAP2 SWAP1 POP JUMP JUMPDEST PUSH1 0x0 DUP2 SWAP1 POP DUP2 PUSH1 0x0 MSTORE PUSH1 0x20 PUSH1 0x0 KECCAK256 SWAP1 POP SWAP2 SWAP1 POP JUMP JUMPDEST PUSH1 0x0 PUSH1 0x20 PUSH1 0x1F DUP4 ADD DIV SWAP1 POP SWAP2 SWAP1 POP JUMP JUMPDEST PUSH1 0x0 DUP3 DUP3 SHL SWAP1 POP SWAP3 SWAP2 POP POP JUMP JUMPDEST PUSH1 0x0 PUSH1 0x8 DUP4 MUL PUSH2 0x924 PUSH32 0xFFFFFFFFFFFFFFFFFFFFFFFFFFFFFFFFFFFFFFFFFFFFFFFFFFFFFFFFFFFFFFFF DUP3 PUSH2 0x8E7 JUMP JUMPDEST PUSH2 0x92E DUP7 DUP4 PUSH2 0x8E7 JUMP JUMPDEST SWAP6 POP DUP1 NOT DUP5 AND SWAP4 POP DUP1 DUP7 AND DUP5 OR SWAP3 POP POP POP SWAP4 SWAP3 POP POP POP JUMP JUMPDEST PUSH1 0x0 DUP2 SWAP1 POP SWAP2 SWAP1 POP JUMP JUMPDEST PUSH1 0x0 PUSH2 0x96B PUSH2 0x966 PUSH2 0x961 DUP5 PUSH2 0x420 JUMP JUMPDEST PUSH2 0x946 JUMP JUMPDEST PUSH2 0x420 JUMP JUMPDEST SWAP1 POP SWAP2 SWAP1 POP JUMP JUMPDEST PUSH1 0x0 DUP2 SWAP1 POP SWAP2 SWAP1 POP JUMP JUMPDEST PUSH2 0x985 DUP4 PUSH2 0x950 JUMP JUMPDEST PUSH2 0x999 PUSH2 0x991 DUP3 PUSH2 0x972 JUMP JUMPDEST DUP5 DUP5 SLOAD PUSH2 0x8F4 JUMP JUMPDEST DUP3 SSTORE POP POP POP POP JUMP JUMPDEST PUSH1 0x0 SWAP1 JUMP JUMPDEST PUSH2 0x9AE PUSH2 0x9A1 JUMP JUMPDEST PUSH2 0x9B9 DUP2 DUP5 DUP5 PUSH2 0x97C JUMP JUMPDEST POP POP POP JUMP JUMPDEST JUMPDEST DUP2 DUP2 LT ISZERO PUSH2 0x9DD JUMPI PUSH2 0x9D2 PUSH1 0x0 DUP3 PUSH2 0x9A6 JUMP JUMPDEST PUSH1 0x1 DUP2 ADD SWAP1 POP PUSH2 0x9BF JUMP JUMPDEST POP POP JUMP JUMPDEST PUSH1 0x1F DUP3 GT ISZERO PUSH2 0xA22 JUMPI PUSH2 0x9F3 DUP2 PUSH2 0x8C2 JUMP JUMPDEST PUSH2 0x9FC DUP5 PUSH2 0x8D7 JUMP JUMPDEST DUP2 ADD PUSH1 0x20 DUP6 LT ISZERO PUSH2 0xA0B JUMPI DUP2 SWAP1 POP JUMPDEST PUSH2 0xA1F PUSH2 0xA17 DUP6 PUSH2 0x8D7 JUMP JUMPDEST DUP4 ADD DUP3 PUSH2 0x9BE JUMP JUMPDEST POP POP JUMPDEST POP POP POP JUMP JUMPDEST PUSH1 0x0 DUP3 DUP3 SHR SWAP1 POP SWAP3 SWAP2 POP POP JUMP JUMPDEST PUSH1 0x0 PUSH2 0xA45 PUSH1 0x0 NOT DUP5 PUSH1 0x8 MUL PUSH2 0xA27 JUMP JUMPDEST NOT DUP1 DUP4 AND SWAP2 POP POP SWAP3 SWAP2 POP POP JUMP JUMPDEST PUSH1 0x0 PUSH2 0xA5E DUP4 DUP4 PUSH2 0xA34 JUMP JUMPDEST SWAP2 POP DUP3 PUSH1 0x2 MUL DUP3 OR SWAP1 POP SWAP3 SWAP2 POP POP JUMP JUMPDEST PUSH2 0xA77 DUP3 PUSH2 0x439 JUMP JUMPDEST PUSH8 0xFFFFFFFFFFFFFFFF DUP2 GT ISZERO PUSH2 0xA90 JUMPI PUSH2 0xA8F PUSH2 0x5EF JUMP JUMPDEST JUMPDEST PUSH2 0xA9A DUP3 SLOAD PUSH2 0x891 JUMP JUMPDEST PUSH2 0xAA5 DUP3 DUP3 DUP6 PUSH2 0x9E1 JUMP JUMPDEST PUSH1 0x0 PUSH1 0x20 SWAP1 POP PUSH1 0x1F DUP4 GT PUSH1 0x1 DUP2 EQ PUSH2 0xAD8 JUMPI PUSH1 0x0 DUP5 ISZERO PUSH2 0xAC6 JUMPI DUP3 DUP8 ADD MLOAD SWAP1 POP JUMPDEST PUSH2 0xAD0 DUP6 DUP3 PUSH2 0xA52 JUMP JUMPDEST DUP7 SSTORE POP PUSH2 0xB38 JUMP JUMPDEST PUSH1 0x1F NOT DUP5 AND PUSH2 0xAE6 DUP7 PUSH2 0x8C2 JUMP JUMPDEST PUSH1 0x0 JUMPDEST DUP3 DUP2 LT ISZERO PUSH2 0xB0E JUMPI DUP5 DUP10 ADD MLOAD DUP3 SSTORE PUSH1 0x1 DUP3 ADD SWAP2 POP PUSH1 0x20 DUP6 ADD SWAP5 POP PUSH1 0x20 DUP2 ADD SWAP1 POP PUSH2 0xAE9 JUMP JUMPDEST DUP7 DUP4 LT ISZERO PUSH2 0xB2B JUMPI DUP5 DUP10 ADD MLOAD PUSH2 0xB27 PUSH1 0x1F DUP10 AND DUP3 PUSH2 0xA34 JUMP JUMPDEST DUP4 SSTORE POP JUMPDEST PUSH1 0x1 PUSH1 0x2 DUP9 MUL ADD DUP9 SSTORE POP POP POP JUMPDEST POP POP POP POP POP POP JUMP INVALID LOG2 PUSH5 0x6970667358 0x22 SLT KECCAK256 BYTE ADDMOD GASLIMIT 0xB8 0xEB 0xB6 0xC7 0xB0 0xD0 DUP9 PUSH11 0x3EA67284A9EAD116A8872D XOR 0xD LOG2 0x4D PUSH7 0xDAF53FC2DB6473 PUSH16 0x6C634300081800330000000000000000 "},"methodIdentifiers":{"attackRecords(uint256)":"7186bf8b","getAttackRecords()":"070528df","recordAttack(string)":"6fec3e8c"}}}}}