{
  "_format": "hh-sol-artifact-1",
  "contractName": "Guardify",
  "sourceName": "contracts/Guardify.sol",
  "abi": [
    {
      "inputs": [
        {
          "internalType": "uint256",
          "name": "",
          "type": "uint256"
        }
      ],
      "name": "attackRecords",
      "outputs": [
        {
          "internalType": "address",
          "name": "attacker",
          "type": "address"
        },
        {
          "internalType": "uint256",
          "name": "timestamp",
          "type": "uint256"
        },
        {
          "internalType": "string",
          "name": "attackType",
          "type": "string"
        }
      ],
      "stateMutability": "view",
      "type": "function"
    },
    {
      "inputs": [],
      "name": "getAttackRecords",
      "outputs": [
        {
          "components": [
            {
              "internalType": "address",
              "name": "attacker",
              "type": "address"
            },
            {
              "internalType": "uint256",
              "name": "timestamp",
              "type": "uint256"
            },
            {
              "internalType": "string",
              "name": "attackType",
              "type": "string"
            }
          ],
          "internalType": "struct Guardify.AttackRecord[]",
          "name": "",
          "type": "tuple[]"
        }
      ],
      "stateMutability": "view",
      "type": "function"
    },
    {
      "inputs": [
        {
          "internalType": "string",
          "name": "_attackType",
          "type": "string"
        }
      ],
      "name": "recordAttack",
      "outputs": [],
      "stateMutability": "nonpayable",
      "type": "function"
    }
  ],
  "bytecode": "0x608060405234801561001057600080fd5b50610b76806100206000396000f3fe608060405234801561001057600080fd5b50600436106100415760003560e01c8063070528df146100465780636fec3e8c146100645780637186bf8b14610080575b600080fd5b61004e6100b2565b60405161005b91906105af565b60405180910390f35b61007e6004803603810190610079919061071a565b610203565b005b61009a6004803603810190610095919061078f565b6102d1565b6040516100a993929190610824565b60405180910390f35b60606000805480602002602001604051908101604052809291908181526020016000905b828210156101fa57838290600052602060002090600302016040518060600160405290816000820160009054906101000a900473ffffffffffffffffffffffffffffffffffffffff1673ffffffffffffffffffffffffffffffffffffffff1673ffffffffffffffffffffffffffffffffffffffff1681526020016001820154815260200160028201805461016990610891565b80601f016020809104026020016040519081016040528092919081815260200182805461019590610891565b80156101e25780601f106101b7576101008083540402835291602001916101e2565b820191906000526020600020905b8154815290600101906020018083116101c557829003601f168201915b505050505081525050815260200190600101906100d6565b50505050905090565b600060405180606001604052803373ffffffffffffffffffffffffffffffffffffffff168152602001428152602001838152509050600081908060018154018082558091505060019003906000526020600020906003020160009091909190915060008201518160000160006101000a81548173ffffffffffffffffffffffffffffffffffffffff021916908373ffffffffffffffffffffffffffffffffffffffff1602179055506020820151816001015560408201518160020190816102ca9190610a6e565b5050505050565b600081815481106102e157600080fd5b90600052602060002090600302016000915090508060000160009054906101000a900473ffffffffffffffffffffffffffffffffffffffff169080600101549080600201805461033090610891565b80601f016020809104026020016040519081016040528092919081815260200182805461035c90610891565b80156103a95780601f1061037e576101008083540402835291602001916103a9565b820191906000526020600020905b81548152906001019060200180831161038c57829003601f168201915b5050505050905083565b600081519050919050565b600082825260208201905092915050565b6000819050602082019050919050565b600073ffffffffffffffffffffffffffffffffffffffff82169050919050565b600061040a826103df565b9050919050565b61041a816103ff565b82525050565b6000819050919050565b61043381610420565b82525050565b600081519050919050565b600082825260208201905092915050565b60005b83811015610473578082015181840152602081019050610458565b60008484015250505050565b6000601f19601f8301169050919050565b600061049b82610439565b6104a58185610444565b93506104b5818560208601610455565b6104be8161047f565b840191505092915050565b60006060830160008301516104e16000860182610411565b5060208301516104f4602086018261042a565b506040830151848203604086015261050c8282610490565b9150508091505092915050565b600061052583836104c9565b905092915050565b6000602082019050919050565b6000610545826103b3565b61054f81856103be565b935083602082028501610561856103cf565b8060005b8581101561059d578484038952815161057e8582610519565b94506105898361052d565b925060208a01995050600181019050610565565b50829750879550505050505092915050565b600060208201905081810360008301526105c9818461053a565b905092915050565b6000604051905090565b600080fd5b600080fd5b600080fd5b600080fd5b7f4e487b7100000000000000000000000000000000000000000000000000000000600052604160045260246000fd5b6106278261047f565b810181811067ffffffffffffffff82111715610646576106456105ef565b5b80604052505050565b60006106596105d1565b9050610665828261061e565b919050565b600067ffffffffffffffff821115610685576106846105ef565b5b61068e8261047f565b9050602081019050919050565b82818337600083830152505050565b60006106bd6106b88461066a565b61064f565b9050828152602081018484840111156106d9576106d86105ea565b5b6106e484828561069b565b509392505050565b600082601f830112610701576107006105e5565b5b81356107118482602086016106aa565b91505092915050565b6000602082840312156107305761072f6105db565b5b600082013567ffffffffffffffff81111561074e5761074d6105e0565b5b61075a848285016106ec565b91505092915050565b61076c81610420565b811461077757600080fd5b50565b60008135905061078981610763565b92915050565b6000602082840312156107a5576107a46105db565b5b60006107b38482850161077a565b91505092915050565b6107c5816103ff565b82525050565b6107d481610420565b82525050565b600082825260208201905092915050565b60006107f682610439565b61080081856107da565b9350610810818560208601610455565b6108198161047f565b840191505092915050565b600060608201905061083960008301866107bc565b61084660208301856107cb565b818103604083015261085881846107eb565b9050949350505050565b7f4e487b7100000000000000000000000000000000000000000000000000000000600052602260045260246000fd5b600060028204905060018216806108a957607f821691505b6020821081036108bc576108bb610862565b5b50919050565b60008190508160005260206000209050919050565b60006020601f8301049050919050565b600082821b905092915050565b6000600883026109247fffffffffffffffffffffffffffffffffffffffffffffffffffffffffffffffff826108e7565b61092e86836108e7565b95508019841693508086168417925050509392505050565b6000819050919050565b600061096b61096661096184610420565b610946565b610420565b9050919050565b6000819050919050565b61098583610950565b61099961099182610972565b8484546108f4565b825550505050565b600090565b6109ae6109a1565b6109b981848461097c565b505050565b5b818110156109dd576109d26000826109a6565b6001810190506109bf565b5050565b601f821115610a22576109f3816108c2565b6109fc846108d7565b81016020851015610a0b578190505b610a1f610a17856108d7565b8301826109be565b50505b505050565b600082821c905092915050565b6000610a4560001984600802610a27565b1980831691505092915050565b6000610a5e8383610a34565b9150826002028217905092915050565b610a7782610439565b67ffffffffffffffff811115610a9057610a8f6105ef565b5b610a9a8254610891565b610aa58282856109e1565b600060209050601f831160018114610ad85760008415610ac6578287015190505b610ad08582610a52565b865550610b38565b601f198416610ae6866108c2565b60005b82811015610b0e57848901518255600182019150602085019450602081019050610ae9565b86831015610b2b5784890151610b27601f891682610a34565b8355505b6001600288020188555050505b50505050505056fea26469706673582212201a0845b8ebb6c7b0d0886a3ea67284a9ead116a8872d180da24d66daf53fc2db64736f6c63430008180033",
  "linkReferences": {},
  "deployedLinkReferences": {}
}